:020000040000FA
:040000001FEF00F0FE
:100008004082D9CF23F0DACF24F09EAA0EEF00F079
:1000180010EF00F019EF00F0010E1024D96EDA6A23
:10002800000EDA22AECFDFFF102A24C0DAFF23C089
:10003800D9FF4092110071EF01F0929C9490949234
:10004800949495909592899C8B908B928B948C909C
:100058008C92270E296EF50EE82EFED7292EFCD796
:1000680000F0030EBCEC00F00D0E296EFC0EE82E1D
:10007800FED7292EFCD7030EBCEC00F0850EE82E27
:10008800FED700F0030EBCEC00F0210EE82EFED7E0
:1000980000F0020EBCEC00F0210EE82EFED700F0B6
:1000A800000E276E280E59EC01F0000E276E080E80
:1000B80059EC01F0000E276E010E59EC01F0060E06
:1000C800296E300EE82EFED7292EFCD700D0000E60
:1000D800276E060E59EC01F0000E276E0F0E59EC34
:1000E80001F01200720ED36ED3A47DEF00F07FEF03
:1000F80000F078EF00F098EC01F021EC00F0010E30
:100108003FEC01F0F28EF28CD08E9D8A0F0E101803
:10011800D8A491EF00F093EF00F08AEF00F0000E02
:100128003E6E020E3E24D96EDA6A000EDA22320ED4
:100138003E24E16EE26A000EE222DFCFE7FF3E2AAC
:100148000B0E3E64AAEF00F0ACEF00F095EF00F064
:10015800320E296E000E2A6E21EC01F0000E2C6E74
:10016800010E2B6EF8EC00F08AEF00F01FEF00F0A4
:10017800266E26C025F0010E251625468B5025181B
:10018800FD0B25188B6E26C025F0D8902532010E60
:100198002516254625468B502518FB0B25188B6EF2
:1001A80026C025F0D8902532D8902532010E251684
:1001B8008C502518FE0B25188C6E26C025F0D8907B
:1001C8002532D8902532D8902532010E251625469D
:1001D8008C502518FD0B25188C6EA4EC01F0030E2D
:1001E800E82EFED700F012002BC025F02CC026F018
:1001F800000E286E140E276E85EC01F025C02EF037
:1002080026C02FF0000E316E000E306E15EF01F093
:10021800820E2D6EDE0EE82EFED72D2EFCD7304A2C
:10022800312A2E50305C2F503158D8A01EEF01F0E3
:1002380020EF01F00CEF01F0120032EF01F0010E97
:10024800276E29C0D9FF2AC0DAFFDF5059EC01F028
:10025800294A2A2A210EE82EFED700F029C0D9FF04
:100268002AC0DAFFDF50D8A43CEF01F03EEF01F0DE
:1002780023EF01F01200296E2904D8A446EF01F0FB
:1002880048EF01F04FEF01F0000E276E800E59EC99
:1002980001F054EF01F0000E276EC00E59EC01F08A
:1002A800210EE82EFED700F01200286E27B002D0EB
:1002B800899C01D0898C28380F0B0F0BBCEC00F0FF
:1002C800060EE82EFED700D028500F0BBCEC00F02D
:1002D800210EE82EFED700F01200560EF66E030E21
:1002E800F76E000EF86E0900F5CF3FF000EE01F052
:1002F800220EEE6AE806FDE140904092000176EF9A
:1003080000F025502702F3CF29F0F4CF2AF025502A
:100318002802F3502A2626502702F3502A2629C0FD
:1003280025F02AC026F01200948C948ECF0EAF6E62
:10033800000EB06EAA86AC84AB88AB8EAC8A120075
:0F0348008B80030EE82EFED700F08B9012004B37
:020000040020DA
:08000000FFFFFFFFFFFFFFFF00
:020000040030CA
:0E000000FFC80F3F3C9D85FF0FC00FE00F4073
:00000001FF
