:020000040000FA
:0400000069EF00F0B4
:100018003D80D8CF08F0E8CF09F0E0CF0AF0F2A28F
:1000280018EF00F01AEF00F061EF00F0000ECF6E4D
:10003800000ECE6E000E026E020E016E82EC02F011
:10004800F2929EA42AEF00F02CEF00F043EF00F0AC
:10005800BF50076E066ABE500624266E000E0720A3
:10006800276E9E94BFCF01F0026A82EC02F0010E67
:10007800A2EC02F0010E036EBE50BCEC02F0A1A08F
:1000880048EF00F04AEF00F061EF00F0BC50076E57
:10009800066ABB500624286E000E0720296EA19020
:1000A800BCCF01F0026A82EC02F0020EA2EC02F070
:1000B800010E036EBB50BCEC02F00AC0E0FF09C0A1
:1000C800E8FF08C0D8FF3D90100013EF03F020EEC2
:1000D80001F01950D9261A50DA22DF50D8B477EF38
:1000E80000F079EF00F0AAEF00F019C0D9FF1AC0AC
:1000F800DAFFDF501B6E1B500B6E0C6A20EE07F008
:100108001950D9261A50DA22DECF0DF0DDCF0EF0C5
:1001180027EC03F00BC011F00CC012F0000E146EA7
:10012800640E136EA1EC01F020EE07F01950D926E9
:100138001A50DA22DECF1CF0DDCF1DF011501C5C06
:100148001E6E12501D581F6ECDEF00F019C0D9FF5A
:100158001AC0DAFFDF501B6E1B500B6E0C6A20EEC4
:1001680007F01950D9261A50DA22DECF0DF0DDCF6C
:100178000EF027EC03F00BC011F00CC012F0000ECB
:10018800146E640E136EA1EC01F011C01EF012C0C3
:100198001FF01EC01BF01FC01CF0D8901B361C3669
:1001A800D8901B361C361BC01EF01CC01FF020EE5A
:1001B80002F01950D9261A50DA22DECF1BF0DDCF13
:1001C8001CF01BC0D9FF1CC0DAFF1EC0DFFF20EEE9
:1001D80004F01950D9261A50DA22DECF1BF0DDCFF1
:1001E8001CF01BC0D9FF1CC0DAFF1F503F0BDF6E8D
:1001F80020EE01F01950D9261A50DA22DF50D8B46F
:1002080008EF01F00AEF01F021EF01F020EE06F00F
:100218001950D9261A50DA22DF501B6E010E1C6EB7
:100228001B2A19EF01F0D8901C361B2E17EF01F08E
:100238001C508A108A6E37EF01F020EE06F0195034
:10024800D9261A50DA22DF501B6E010E1C6E1B2AAB
:1002580030EF01F0D8901C361B2E2EEF01F01C5009
:10026800FF0A8A148A6E1200720ED36ED3A43FEF6F
:1002780001F041EF01F03AEF01F003EC02F0F28EE9
:10028800F28CD08E9D8A948294849486BD96BD8487
:10029800BD92BD80BA96BA84BA92BA80F288F19CAF
:1002A800CD80CD8ECD92CD96CD88CD8ACD8C28505F
:1002B800265C246E29502758256E255009E1650EC5
:1002C800245CD8A06AEF01F06CEF01F076EF01F042
:1002D800330E206E000E216E2A0E226E000E236E43
:1002E800E9EC02F02850265C246E29502758256E28
:1002F800255007E1640E245CD8B085EF01F087EF44
:1003080001F093EF01F0330E206E000E216E2A0EDD
:10031800226E000E236ED4EC02F05BEF01F0330E78
:10032800206E000E216E2A0E226E000E236EFEEC49
:1003380002F05BEF01F069EF00F0000E166E14BEDC
:10034800AAEF01F0A8EF01F0B0EF01F0136C141E52
:10035800D8B0142A010E166E12BEB7EF01F0B5EF31
:1003680001F0BDEF01F0116C121ED8B0122A010E77
:10037800161A000E186E000E176E13501410D8B40B
:10038800C8EF01F0CAEF01F0F2EF01F0010E156EAF
:10039800D2EF01F0D89013361436152A14AED7EFE1
:1003A80001F0D9EF01F0CEEF01F0D89017361836EA
:1003B8001350115C14501258D8A0E5EF01F0E7EF84
:1003C80001F0ECEF01F01350115E1450125A17802F
:1003D800D89014321332152ED9EF01F01650D8B434
:1003E800F8EF01F0FAEF01F0FEEF01F0176C181EBC
:1003F800D8B0182A17C011F018C012F01200939044
:100408009392939493968A908A928A948A96000EED
:100418007F6E800E7E6E6F0E6F6E000E6E6EC70E54
:100428007B6E000E7A6E000E796E000E786E000EEE
:10043800776E000E766E000E336E010E346E790EF6
:10044800356E0F0E366E780E376E0F0E386E000E44
:10045800396E000E3B6EC70E3A6E000E2A6E010E04
:100468002B6E770E2C6E0F0E2D6E760E2E6E0F0ED7
:100478002F6E020E306E000E326EC70E316E1200F5
:10048800026E02C001F0010E011601460146014646
:100498008C500118F70B01188C6E02C001F0D8902F
:1004A8000132010E0116014601468C500118FB0B62
:1004B80001188C6E02C001F0D8900132D890013238
:1004C800010E01168C500118FE0B01188C6E02C02B
:1004D80001F0D8900132D8900132D8900132010E43
:1004E800011601468C500118FD0B01188C6E3AEC70
:1004F80003F0030EE82EFED700F0120001C003F04F
:100508003C0E0316D8900336D89003348B6E01C086
:1005180003F002C004F00434043203320434043219
:100528000332300E031601C005F0030E0516D890ED
:100538000536D890053403108C6E1200056E05043C
:10054800D8A4A9EF02F0ABEF02F0B2EF02F0000E70
:10055800036E800EBCEC02F0B7EF02F0000E036EE3
:10056800C00EBCEC02F0210EE82EFED700F01200FF
:10057800046E03B002D0899C01D0898C04380F0B1B
:100588000F0B44EC02F0060EE82EFED700D0045004
:100598000F0B44EC02F0210EE82EFED700F01200FB
:1005A800010E2B6E000E346E3CC02AF03CC033F0B6
:1005B8002A0E196E000E1A6E6BEC00F0330E196ECF
:1005C800000E1A6E6BEC00F01200010E346E000E75
:1005D8002B6E3CC033F03CC02AF02A0E196E000E78
:1005E8001A6E6BEC00F0330E196E000E1A6E6BEC7F
:1005F80000F01200010E2B6E010E346E3CC033F079
:100608003CC02AF02A0E196E000E1A6E6BEC00F030
:10061800330E196E000E1A6E6BEC00F01200820E8B
:10062800F66E060EF76E000EF86E0900F5CF3CF078
:1006380000EE26F0160EEE6AE806FDE13D903D92CA
:10064800000138EF01F00B500D02F3CF0FF0F4CF9B
:1006580010F00B500E02F35010260C500D02F35000
:1006680010260FC00BF010C00CF012008B80030E88
:0B067800E82EFED700F08B9012003C33
:020000040020DA
:08000000FFFFFFFFFFFFFFFF00
:020000040030CA
:0E000000FFC80F3F3C9D85FF0FC00FE00F4073
:00000001FF
