:020000040000FA
:0400000039EF00F0E4
:0600080037826BEF01F0EE
:100018003780D8CF2EF0E8CF2FF0E0CF30F0F28243
:10002800000ECF6E000ECE6EF2929E84C9EC01F0E7
:10003800010E51EC01F0010E2B6EBF509DEC01F04A
:100048009E94A180C9EC01F0020E51EC01F0010E62
:100058002B6EBC509DEC01F0A19030C0E0FF2FC08A
:10006800E8FF2EC0D8FF37901000B5EF01F0929C42
:1000780094909596959495909592899C8B908C9256
:100088008C948C908C92270E356EF50EE82EFED748
:10009800352EFCD700F0030E90EC00F00D0E356EF7
:1000A800FC0EE82EFED7352EFCD7030E90EC00F0A0
:1000B800850EE82EFED700F0030E90EC00F0210E1E
:1000C800E82EFED700F0020E90EC00F0210EE82E8C
:1000D800FED700F0000E336E280E85EC01F0000EFE
:1000E800336E080E85EC01F0000E336E010E85ECC0
:1000F80001F0060E356E300EE82EFED7352EFCD7F1
:1001080000D0000E336E060E85EC01F0000E336E43
:100118000F0E85EC01F01200326E32C031F0010E84
:1001280031163146314631468C503118F70B3118AB
:100138008C6E32C031F0D8903132010E3116314612
:1001480031468C503118FB0B31188C6E32C031F0AF
:10015800D8903132D8903132010E31168C50311886
:10016800FE0B31188C6E32C031F0D8903132D890F5
:100178003132D8903132010E311631468C50311857
:10018800FD0B31188C6EE3EC01F0030EE82EFED760
:1001980000F012002A6E2AC029F0010E29162946FD
:1001A800294629468C502918F70B29188C6E2AC025
:1001B80029F0D8902932010E2916294629468C5053
:1001C8002918FB0B29188C6E2AC029F0D8902932DF
:1001D800D8902932010E29168C502918FE0B29189F
:1001E8008C6E2AC029F0D8902932D8902932D8901C
:1001F8002932010E291629468C502918FD0B291879
:100208008C6EEAEC01F0030EE82EFED700F0120027
:10021800720ED36ED3A413EF01F015EF01F00EEFB9
:1002280001F0D7EC01F03BEC00F0010E37EC01F0E7
:10023800F28EF28CD08E9D8A948294849486BD9698
:10024800BD84BD92BD80BA96BA84BA92BA80F2884B
:10025800F19CCD80CD8ECD92CD86CD88CD8A33EFE1
:1002680001F039EF00F0356E3504D8A43EEF01F007
:1002780040EF01F047EF01F0000E336E800E85EC81
:1002880001F04CEF01F0000E336EC00E85EC01F06A
:10029800210EE82EFED700F012002D6E2D04D8A4F2
:1002A80058EF01F05AEF01F061EF01F0000E2B6EEC
:1002B800800E9DEC01F066EF01F0000E2B6EC00E73
:1002C8009DEC01F0210EE82EFED700F01200D9CFE8
:1002D80027F0DACF28F09EAA74EF01F076EF01F04C
:1002E8007FEF01F0010E1424D96EDA6A000EDA22CB
:1002F800AECFDFFF142A28C0DAFF27C0D9FF379214
:100308001100346E33B002D0899C01D0898C343806
:100318000F0B0F0B90EC00F0060EE82EFED700D066
:1003280034500F0B90EC00F0210EE82EFED700F0B1
:1003380012002C6E2BB002D0899C01D0898C2C38ED
:100348000F0B0F0BCEEC00F0060EE82EFED700D0F8
:100358002C500F0BCEEC00F0210EE82EFED700F04B
:100368001200E20EF66E030EF76E000EF86E09002C
:10037800F5CF36F000EE01F0260EEE6AE806FDE154
:100388003790379200010CEF01F0000E2B6E010E32
:100398009DEC01F0060E2D6E300EE82EFED72D2EA8
:1003A800FCD700D01200948C948ECF0EAF6E000E46
:1003B800B06EAA86AC84AB88AB8EAC8A12008B80F8
:1003C800030EE82EFED700F08B9012008B80030EF0
:0B03D800E82EFED700F08B9012004BC7
:020000040020DA
:08000000FFFFFFFFFFFFFFFF00
:020000040030CA
:0E000000FFC80F3F3C9D85FF0FC00FE00F4073
:00000001FF
