:020000040000FA
:0400000043EF00F0DA
:100018002780D8CF1EF0E8CF1FF0E0CF20F0F2A263
:1000280018EF00F01AEF00F03BEF00F0000ECF6E73
:10003800000ECE6E000E186E020E176E92EC00F0D7
:10004800F2929EA42AEF00F02CEF00F03BEF00F0B4
:10005800BF501D6E1C6ABE501C24016E000E1D2070
:10006800026E9E94BFCF17F0186A92EC00F020C081
:10007800E0FF1FC0E8FF1EC0D8FF27901000B2EFB6
:1000880000F0720ED36ED3A44CEF00F04EEF00F0E8
:1000980047EF00F0F28EF28CD08E9D8A9482948481
:1000A8009486BD96BD84BD92BD80BA96BA84BA9234
:1000B800BA80C6EC00F0F288F19CCD80CD8ECD924E
:1000C800CD96CD88CD8ACD8C000E226E540E216E31
:1000D80072EC00F06EEF00F043EF00F021C023F067
:1000E8003C0E2316D8902336D89023348B6E21C02B
:1000F80023F022C024F0243424322332243424323E
:100108002332300E231621C025F0030E2516D89071
:100118002536D890253423108C6E120017C019F09C
:100128003C0E1916D8901936D89019348B6E17C012
:1001380019F018C01AF01A341A3219321A341A324D
:100148001932300E191617C01BF0030E1B16D89063
:100158001B36D8901B3419108C6E1200AE0EF66E3A
:10016800010EF76E000EF86E0900F5CF26F000EECE
:1001780001F0160EEE6AE806FDE1279027920001CD
:1001880045EF00F08C948C968B988B9A8B9C8B9E69
:100198008C988C9A959495969598959A9498949A03
:0701A800949C949E12004B91
:020000040020DA
:08000000FFFFFFFFFFFFFFFF00
:020000040030CA
:0E000000FFC80F3F3C9D85FF0FC00FE00F4073
:00000001FF
