:020000040000FA
:040000001FEF00F0FE
:100008002F82D9CF24F0DACF25F09EAA0EEF00F088
:1000180010EF00F019EF00F0020E0124D96EDA6A31
:10002800000EDA22AECFDFFF012A25C0DAFF24C096
:10003800D9FF2F92110031EF01F0929C9490949285
:10004800949495909592899C8B908B928B948C909C
:100058008C92270E2A6EF50EE82EFED72A2EFCD794
:1000680000F0030E76EC00F00D0E2A6EFC0EE82E62
:10007800FED72A2EFCD7030E76EC00F0850EE82E6C
:10008800FED700F0030E76EC00F0210EE82EFED726
:1000980000F0020E76EC00F0210EE82EFED700F0FC
:1000A800000E286E280E19EC01F0000E286E080EBE
:1000B80019EC01F0000E286E010E19EC01F0060E85
:1000C8002A6E300EE82EFED72A2EFCD700D0000E5E
:1000D800286E060E19EC01F0000E286E0F0E19ECB2
:1000E80001F01200276E27C026F0010E26162646BC
:1000F8008B502618FD0B26188B6E27C026F0D8903B
:100108002632010E2616264626468B502618FB0B4D
:1001180026188B6E27C026F0D8902632D890263223
:10012800010E26168C502618FE0B26188C6E27C03A
:1001380026F0D8902632D8902632D8902632010E52
:10014800261626468C502618FD0B26188C6E51EC68
:1001580001F0030EE82EFED700F01200720ED36EE7
:10016800D3A4B9EF00F0BBEF00F0B4EF00F045EC1A
:1001780001F021EC00F0010EFFEC00F0F28EF28CA1
:10018800D08E9D8A000E286E010E19EC01F0020E29
:100198002A6E000E2B6EE1EC00F0020E2D6E040E9E
:1001A8002C6EBA0EE82EFED72C2EFCD72D2EFAD7A1
:1001B80000D0C6EF00F01FEF00F0F2EF00F0010EE4
:1001C800286E2AC0D9FF2BC0DAFFDF5019EC01F0E6
:1001D8002A4A2B2A210EE82EFED700F02AC0D9FF82
:1001E8002BC0DAFFDF50D8A4FCEF00F0FEEF00F0E0
:1001F800E3EF00F012002A6E2A04D8A406EF01F0FB
:1002080008EF01F00FEF01F0000E286E800E19ECD8
:1002180001F014EF01F0000E286EC00E19EC01F089
:10022800210EE82EFED700F01200296E28B002D069
:10023800899C01D0898C29380F0B0F0B76EC00F0C4
:10024800060EE82EFED700D029500F0B76EC00F0F2
:10025800210EE82EFED700F01200B00EF66E020E48
:10026800F76E000EF86E0900F5CF2EF000EE01F0E3
:10027800230EEE6AE806FDE12F902F920001B2EFFF
:1002880000F0948C948ECF0EAF6E000EB06EAA86DE
:10029800AC84AB88AB8EAC8A12008B80030EE82E40
:0902A800FED700F08B9012004B10
:020000040020DA
:08000000FFFFFFFFFFFFFFFF00
:020000040030CA
:0E000000FFC80F3F3C9D85FF0FC00FE00F4073
:00000001FF
