:020000040000FA
:040000002BEF00F0F2
:0600080047825AEF02F0EE
:100018004780D8CF29F0E8CF2AF0E0CF2BF0F28242
:10002800000ECF6E000ECE6EF2929E84BECF10F000
:10003800116A9E94A180BBCF12F0136AA1902BC0C5
:10004800E0FF2AC0E8FF29C0D8FF47901000B6EFAC
:1000580002F020EE01F03A50D9263B50DA22DF5068
:10006800D8B439EF00F03BEF00F06CEF00F03AC085
:10007800D9FF3BC0DAFFDF503C6E3C502C6E2D6A36
:1000880020EE07F03A50D9263B50DA22DECF2EF088
:10009800DDCF2FF0CAEC02F02CC032F02DC033F0C7
:1000A800000E356E640E346EFAEC00F020EE07F0A8
:1000B8003A50D9263B50DA22DECF3DF0DDCF3EF074
:1000C80032503D5C3F6E33503E58406E8FEF00F02B
:1000D8003AC0D9FF3BC0DAFFDF503C6E3C502C6E73
:1000E8002D6A20EE07F03A50D9263B50DA22DECFAF
:1000F8002EF0DDCF2FF0CAEC02F02CC032F02DC06C
:1001080033F0000E356E640E346EFAEC00F032C037
:100118003FF033C040F03FC03CF040C03DF0D890C5
:100128003C363D36D8903C363D363CC03FF03DC06D
:1001380040F020EE02F03A50D9263B50DA22DECFCA
:100148003CF0DDCF3DF03CC0D9FF3DC0DAFF3FC0F9
:10015800DFFF20EE04F03A50D9263B50DA22DECFFA
:100168003CF0DDCF3DF03CC0D9FF3DC0DAFF405048
:100178003F0BDF6E20EE01F03A50D9263B50DA22D1
:10018800DF50D8B4CAEF00F0CCEF00F0E3EF00F096
:1001980020EE06F03A50D9263B50DA22DF503C6E6A
:1001A800010E3D6E3C2ADBEF00F0D8903D363C2E28
:1001B800D9EF00F03D508A108A6EF9EF00F020EE7A
:1001C80006F03A50D9263B50DA22DF503C6E010E39
:1001D8003D6E3C2AF2EF00F0D8903D363C2EF0EF11
:1001E80000F03D50FF0A8A148A6E1200000E376E26
:1001F80035BE03EF01F001EF01F009EF01F0346CB7
:10020800351ED8B0352A010E376E33BE10EF01F017
:100218000EEF01F016EF01F0326C331ED8B0332A1E
:10022800010E371A000E396E000E386E3450351034
:10023800D8B421EF01F023EF01F04BEF01F0010EEC
:10024800366E2BEF01F0D89034363536362A35AE77
:1002580030EF01F032EF01F027EF01F0D890383697
:1002680039363450325C35503358D8A03EEF01F05F
:1002780040EF01F045EF01F03450325E3550335A0B
:100288003880D89035323432362E32EF01F037507C
:10029800D8B451EF01F053EF01F057EF01F0386C8B
:1002A800391ED8B0392A38C032F039C033F01200BC
:1002B800929C94909596959495909592899C8B9004
:1002C8008C928C948C908C92270E306EF50EE82EC2
:1002D800FED7302EFCD700F0030E02EC02F00D0E14
:1002E800306EFC0EE82EFED7302EFCD7030E02EC43
:1002F80002F0850EE82EFED700F0030E02EC02F0A5
:10030800210EE82EFED700F0020E02EC02F0210EBC
:10031800E82EFED700F0000E2E6E280E74EC02F0C8
:10032800000E2E6E080E74EC02F0000E2E6E010EFA
:1003380074EC02F0060E306E300EE82EFED7302E2A
:10034800FCD700D0000E2E6E060E74EC02F0000EE4
:100358002E6E0F0E74EC02F01200720ED36ED3A440
:10036800B8EF01F0BAEF01F0B3EF01F0DDEC02F005
:100378005CEC01F0010E40EC02F0F28EF28CD08EB3
:100388009D8A948294849486BD96BD84BD92BD80D6
:10039800BA96BA84BA92BA80F288F19CCD80CD8E92
:1003A800CD92CD96CD88CD8ACD8C1050125C13504D
:1003B800800A456E1150800A4558D8B0E6EF01F022
:1003C800E8EF01F0F4EF01F01E0E416E000E426EF0
:1003D800150E436E000E446EA1EC02F0D9EF01F049
:1003E8001E0E416E000E426E150E436E000E446ED8
:1003F8008CEC02F0D9EF01F02BEF00F02D6E2DC040
:100408002CF0010E2C162C462C462C468C502C1801
:10041800F70B2C188C6E2DC02CF0D8902C32010EB6
:100428002C162C462C468C502C18FB0B2C188C6E3A
:100438002DC02CF0D8902C32D8902C32010E2C16CE
:100448008C502C18FE0B2C188C6E2DC02CF0D890CC
:100458002C32D8902C32D8902C32010E2C162C46E7
:100468008C502C18FD0B2C188C6EE9EC02F0030E46
:10047800E82EFED700F01200306E3004D8A447EF03
:1004880002F049EF02F050EF02F0000E2E6E800EDF
:1004980074EC02F055EF02F0000E2E6EC00E74ECF4
:1004A80002F0210EE82EFED700F01200D9CF27F077
:1004B800DACF28F09EAA63EF02F065EF02F06EEF44
:1004C80002F0010E1424D96EDA6A000EDA22AECFD9
:1004D800DFFF142A28C0DAFF27C0D9FF479211008E
:1004E8002F6E2EB002D0899C01D0898C2F380F0B2B
:1004F8000F0B02EC02F0060EE82EFED700D02F50AC
:100508000F0B02EC02F0210EE82EFED700F01200CD
:10051800010E166E000E1F6E46C015F046C01EF086
:10052800150E3A6E000E3B6E2DEC00F01E0E3A6E64
:10053800000E3B6E2DEC00F01200010E1F6E000E37
:10054800166E46C01EF046C015F0150E3A6E000E27
:100558003B6E2DEC00F01E0E3A6E000E3B6E2DEC3D
:1005680000F01200E00EF66E050EF76E000EF86E43
:100578000900F5CF46F000EE01F0260EEE6AE80617
:10058800FDE1479047920001B1EF01F02C502E0297
:10059800F3CF30F0F4CF31F02C502F02F350312646
:1005A8002D502E02F350312630C02CF031C02DF0E2
:1005B8001200948C948ECF0EAF6E000EB06EAA8689
:1005C800AC84AB88AB8EAC8A12008B80030EE82E0D
:0905D800FED700F08B9012004BDD
:020000040020DA
:08000000FFFFFFFFFFFFFFFF00
:020000040030CA
:0E000000FFC80F3F3C9D85FF0FC00FE00F4073
:00000001FF
