:020000040000FA
:04000000D3EF02F048
:0F0300000048656C6C6F20576F726C64210000B1
:10031000929C94909596959495909592899C8B90AB
:100320008C928C948C908C92270E1B6EF50EE82E7E
:10033000FED71B2EFCD700F0030EDDEC01F00D0EF6
:100340001B6EFC0EE82EFED71B2EFCD7030EDDEC39
:1003500001F0850EE82EFED700F0030EDDEC01F073
:10036000210EE82EFED700F0020EDDEC01F0210E8A
:10037000E82EFED700F0000E196E280EBBEC02F03E
:10038000000E196E080EBBEC02F0000E196E010E85
:10039000BBEC02F0060E1B6E300EE82EFED71B2EB5
:1003A000FCD700D0000E196E060EBBEC02F0000E5A
:1003B000196E0F0EBBEC02F01200186E18C017F089
:1003C000010E17161746174617468C501718F70BCD
:1003D00017188C6E18C017F0D8901732010E171628
:1003E000174617468C501718FB0B17188C6E18C041
:1003F00017F0D8901732D8901732010E17168C507C
:100400001718FE0B17188C6E18C017F0D8901732FB
:10041000D8901732D8901732010E171617468C5005
:100420001718FD0B17188C6EE9EC02F0030EE82E7E
:10043000FED700F01200720ED36ED3A422EF02F0AA
:1004400024EF02F01DEF02F088EC01F0010EA1ECA8
:1004500002F01F0E176E000E186E010E196E030EBD
:100460001A6E43EC02F01F0E1B6E000E1C6E83EC26
:1004700002F0000E186E540E176E63EC02F03FEFA0
:1004800002F000EF00F019C01BF01AC01CF017C0FA
:100490001DF018C01EF01BC0F6FF1CC0F7FF1B4A62
:1004A0001C2A1DC0D9FF1EC0DAFF1D4A1E2A0800E3
:1004B000F5CFDFFFDF50D8A460EF02F062EF02F06B
:1004C0004BEF02F0120017C019F03C0E1916D8902D
:1004D0001936D89019348B6E17C019F018C01AF05D
:1004E0001A341A3219321A341A321932300E1916D5
:1004F00017C01BF0030E1B16D8901B36D8901B3468
:1005000019108C6E120094EF02F0010E196E1BC0D0
:10051000D9FF1CC0DAFFDF50BBEC02F01B4A1C2ADB
:10052000210EE82EFED700F01BC0D9FF1CC0DAFF59
:10053000DF50D8A49EEF02F0A0EF02F085EF02F0AA
:1005400012001B6E1B04D8A4A8EF02F0AAEF02F061
:10055000B1EF02F0000E196E800EBBEC02F0B6EFA8
:1005600002F0000E196EC00EBBEC02F0210EE82E58
:10057000FED700F012001A6E19B002D0899C01D08B
:10058000898C1A380F0B0F0BDDEC01F0060EE82EEC
:10059000FED700D01A500F0BDDEC01F0210EE82E33
:1005A000FED700F01200E00EF66E050EF76E000E9C
:1005B000F86E0900F5CF29F000EE01F0160EEE6A94
:1005C000E806FDE1000EF86E030EF76E00011BEF6A
:1005D00002F08B80030EE82EFED700F08B90120005
:0105E0004BCF
:020000040020DA
:08000000FFFFFFFFFFFFFFFF00
:020000040030CA
:0E000000FFC80F3F3C9D85FF0FC00FE00F4073
:00000001FF
