:020000040000FA
:040000001FEF00F0FE
:100008003F82D9CF23F0DACF24F09EAA0EEF00F07A
:1000180010EF00F019EF00F0020E0124D96EDA6A31
:10002800000EDA22AECFDFFF012A24C0DAFF23C098
:10003800D9FF3F92110082EF01F0720ED36ED3A464
:1000480028EF00F02AEF00F023EF00F0B7EC01F002
:1000580076EC00F0010E50EC01F0F28CD08E9D8A07
:10006800F28E000E016E0F0E0118D8A43EEF00F0BC
:1000780040EF00F037EF00F0000E3D6E030E3D2418
:10008800D96EDA6A000EDA22320E3D24E16EE26A97
:10009800000EE222DFCFE7FF3D2A090E3D6457EF4D
:1000A80000F059EF00F042EF00F0000E3C6EA9ECB2
:1000B80001F0320E296E000E2A6E32EC01F0020EAB
:1000C80050EC01F0020E296E000E2A6E32EC01F09F
:1000D800000E2C6E010E2B6E09EC01F035EF00F0CE
:1000E8001FEF00F0929C9490959695949590959218
:1000F800899C8B908C928C948C908C92270E296E74
:10010800F50EE82EFED7292EFCD700F0030ECBEC17
:1001180000F00D0E296EFC0EE82EFED7292EFCD716
:10012800030ECBEC00F0850EE82EFED700F0030E90
:10013800CBEC00F0210EE82EFED700F0020ECBEC3F
:1001480000F0210EE82EFED700F0000E276E280ED4
:100158006AEC01F0000E276E080E6AEC01F0000E42
:10016800276E010E6AEC01F0060E296E300EE82E9D
:10017800FED7292EFCD700D0000E276E060E6AEC9B
:1001880001F0000E276E0F0E6AEC01F01200266EC9
:1001980026C025F0010E25162546254625468C50F5
:1001A8002518F70B25188C6E26C025F0D890253217
:1001B800010E2516254625468C502518FB0B2518BB
:1001C8008C6E26C025F0D8902532D8902532010EA5
:1001D80025168C502518FE0B25188C6E26C025F088
:1001E800D8902532D8902532D8902532010E251680
:1001F80025468C502518FD0B25188C6EC3EC01F094
:10020800030EE82EFED700F012002BC025F02CC0FC
:1002180026F0000E286E140E276E96EC01F025C00D
:100228002EF026C02FF0000E316E000E306E26EF35
:1002380001F0820E2D6EDE0EE82EFED72D2EFCD795
:10024800304A312A2E50305C2F503158D8A02FEF29
:1002580001F031EF01F01DEF01F0120043EF01F062
:10026800010E276E29C0D9FF2AC0DAFFDF506AECD9
:1002780001F0294A2A2A210EE82EFED700F029C0CB
:10028800D9FF2AC0DAFFDF50D8A44DEF01F04FEFB5
:1002980001F034EF01F01200296E2904D8A457EFB9
:1002A80001F059EF01F060EF01F0000E276E800EAB
:1002B8006AEC01F065EF01F0000E276EC00E6AECE3
:1002C80001F0210EE82EFED700F01200286E27B0AC
:1002D80002D0899C01D0898C28380F0B0F0BCBECEE
:1002E80000F0060EE82EFED700D028500F0BCBECFE
:1002F80000F0210EE82EFED700F01200940EF66EE4
:10030800030EF76E000EF86E0900F5CF3EF000EE12
:1003180001F0220EEE6AE806FDE13F903F920001EF
:1003280021EF00F025502702F3CF29F0F4CF2AF06F
:1003380025502802F3502A2626502702F3502A2651
:1003480029C025F02AC026F01200000E276E010EE3
:100358006AEC01F0060E296E300EE82EFED7292E23
:10036800FCD700D01200948C948ECF0EAF6E000E86
:10037800B06EAA86AC84AB88AB8EAC8A12008B8038
:0D038800030EE82EFED700F08B9012004B04
:020000040020DA
:08000000FFFFFFFFFFFFFFFF00
:020000040030CA
:0E000000FFC80F3F3C1D81FF0FC00FE00F40F7
:00000001FF
