:020000040000FA
:0400000080EF0FF08E
:101EED004B000E8B6E000E8C6E000E946E000E95D8
:101EFD006E1200ED0EF66E1E0EF76E000EF86E09E8
:101F0D0000F5CF16F000EE01F0120EEE6AE806FDB8
:101F1D00E1000192EF0FF0720ED36ED3A499EF0F83
:101F2D00F09BEF0FF094EF0FF077EC0FF0000E1425
:101F3D006E540E136EA7EC0FF0A3EF0FF000EF0031
:101F4D00F013C015F0010E1516154615468C5015DB
:101F5D0018FB0B15188C6E13C015F0020E15161507
:101F6D0046154615468C501518F70B15188C6E1323
:101F7D00C015F0040E1516153A8B501518EF0B15EC
:101F8D00188B6E13C015F0080E1516153A15468BE5
:101F9D00501518DF0B15188B6E13C015F0100E159C
:101FAD0016153A154615468B501518BF0B15188B7F
:101FBD006E13C015F0200E1516153215328B5015F7
:101FCD00187F0B15188B6E13C015F0400E151615D6
:101FDD003A8C501518EF0B15188C6E13C015F08038
:101FED000E1516153A15468C501518DF0B15188C55
:031FFD006E120061
:020000040020DA
:08000000FFFFFFFFFFFFFFFF00
:020000040030CA
:0E000000FFC80F3F3C9D85FF0FC00FE00F4073
:00000001FF
