:020000040000FA
:0400000059EF00F0C4
:100018003B80D8CF08F0E8CF09F0E0CF0AF0F2A291
:1000280018EF00F01AEF00F051EF00F0000ECF6E5D
:10003800000ECE6E000E026E020E016E15EC02F07E
:10004800F2929EA42AEF00F02CEF00F03BEF00F0B4
:10005800BF50076E066ABE500624246E000E0720A5
:10006800256E9E94BFCF01F0026A15EC02F0A1A0A4
:1000780040EF00F042EF00F051EF00F0BC50076E87
:10008800066ABB500624266E000E0720276EA19034
:10009800BCCF01F0026A15EC02F00AC0E0FF09C00B
:1000A800E8FF08C0D8FF3B9010005FEF02F020EE99
:1000B80001F01950D9261A50DA22DF50D8B467EF68
:1000C80000F069EF00F09AEF00F019C0D9FF1AC0EC
:1000D800DAFFDF501B6E1B500B6E0C6A20EE07F028
:1000E8001950D9261A50DA22DECF0DF0DDCF0EF0E6
:1000F80073EC02F00BC011F00CC012F0000E146E7D
:10010800640E136E28EC01F020EE07F01950D92682
:100118001A50DA22DECF1CF0DDCF1DF011501C5C26
:100128001E6E12501D581F6EBDEF00F019C0D9FF8A
:100138001AC0DAFFDF501B6E1B500B6E0C6A20EEE4
:1001480007F01950D9261A50DA22DECF0DF0DDCF8C
:100158000EF073EC02F00BC011F00CC012F0000EA0
:10016800146E640E136E28EC01F011C01EF012C05C
:100178001FF01EC01BF01FC01CF0D8901B361C3689
:10018800D8901B361C361BC01EF01CC01FF020EE7A
:1001980002F01950D9261A50DA22DECF1BF0DDCF33
:1001A8001CF01BC0D9FF1CC0DAFF1EC0DFFF20EE09
:1001B80004F01950D9261A50DA22DECF1BF0DDCF11
:1001C8001CF01BC0D9FF1CC0DAFF1F503F0BDF6EAD
:1001D80020EE01F01950D9261A50DA22DF50D8B48F
:1001E800F8EF00F0FAEF00F011EF01F020EE06F062
:1001F8001950D9261A50DA22DF501B6E010E1C6ED8
:100208001B2A09EF01F0D8901C361B2E07EF01F0CE
:100218001C508A108A6E27EF01F020EE06F0195064
:10022800D9261A50DA22DF501B6E010E1C6E1B2ACB
:1002380020EF01F0D8901C361B2E1EEF01F01C5049
:10024800FF0A8A148A6E1200000E166E14BE31EF71
:1002580001F02FEF01F037EF01F0136C141ED8B046
:10026800142A010E166E12BE3EEF01F03CEF01F0AB
:1002780044EF01F0116C121ED8B0122A010E161AA2
:10028800000E186E000E176E13501410D8B44FEFEE
:1002980001F051EF01F079EF01F0010E156E59EF01
:1002A80001F0D89013361436152A14AE5EEF01F01B
:1002B80060EF01F055EF01F0D8901736183613505B
:1002C800115C14501258D8A06CEF01F06EEF01F0D9
:1002D80073EF01F01350115E1450125A1780D89022
:1002E80014321332152E60EF01F01650D8B47FEF98
:1002F80001F081EF01F085EF01F0176C181ED8B0FE
:10030800182A17C011F018C012F01200720ED36E1E
:10031800D3A491EF01F093EF01F08CEF01F0D4EC4E
:1003280001F0F28EF28CD08E9D8A94829484948609
:10033800BD96BD84BD92BD80BA96BA84BA92BA8081
:1003480086EC02F0F288F19CCD80CD8ECD92CD96D0
:10035800CD88CD8ACD8C2450265C25502758D8B01E
:10036800B8EF01F0BAEF01F0C6EF01F0310E206EE0
:10037800000E216E280E226E000E236E4AEC02F04B
:10038800AFEF01F0310E206E000E216E280E226EA6
:10039800000E236E35EC02F0AFEF01F059EF00F0DC
:1003A80093909392939493968A908A928A948A9639
:1003B800000E7F6E800E7E6E6F0E6F6E000E6E6E7C
:1003C800C70E7B6E000E7A6E000E796E000E786E88
:1003D800000E776E000E766E000E316E010E326ED4
:1003E800790E336E0F0E346E780E356E0F0E366E34
:1003F800000E376E000E396EC70E386E000E286E6E
:10040800010E296E770E2A6E0F0E2B6E760E2C6E4D
:100418000F0E2D6E020E2E6E000E306EC70E2F6E52
:10042800120001C003F03C0E0316D8900336D89092
:1004380003348B6E01C003F002C004F004340432AC
:100448000332043404320332300E031601C005F0BF
:10045800030E0516D8900536D890053403108C6E17
:100468001200010E296E000E326E3AC028F03AC012
:1004780031F0280E196E000E1A6E5BEC00F0310E8A
:10048800196E000E1A6E5BEC00F01200010E326E4F
:10049800000E296E3AC031F03AC028F0280E196EC5
:1004A800000E1A6E5BEC00F0310E196E000E1A6E1B
:1004B8005BEC00F012002E0EF66E050EF76E000EC5
:1004C800F86E0900F5CF3AF000EE24F0160EEE6A49
:1004D800E806FDE13B903B9200018AEF01F00B50EA
:1004E8000D02F3CF0FF0F4CF10F00B500E02F350C3
:1004F80010260C500D02F35010260FC00BF010C040
:100508000CF012008C948C968B988B9A8B9C8B9EFB
:100518008C988C9A959495969598959A9498949A7F
:07052800949C949E12004B0D
:020000040020DA
:08000000FFFFFFFFFFFFFFFF00
:020000040030CA
:0E000000FFC80F3F3C9D85FF0FC00FE00F4073
:00000001FF
