:020000040000FA
:040000001FEF00F0FE
:100008005482D9CF01F0DACF02F09EAA0EEF00F0A9
:1000180010EF00F019EF00F0800E5224D96EDA6A62
:10002800000EDA22AECFDFFF522A02C0DAFF01C08B
:0A003800D9FF54921100AAEF05F061
:1003000000252E313073000024C0D9FF25C0DAFF4C
:10031000DECFF6FFDDCFF7FF0800F550250AD8A4A1
:1003200094EF01F096EF01F0A9EF02F024C0D9FF9D
:1003300025C0DAFFDE2A000EDD22000E4D6E000E13
:100340004C6E4CC050F04DC051F04E684F6824C008
:10035000D9FF25C0DAFFDECFF6FFDDCFF7FF0800BB
:10036000F5502E0AD8A4B7EF01F0B9EF01F036EF3F
:1003700002F0000E4F6E000E4E6E24C0D9FF25C055
:10038000DAFFDE2A000EDD2224C0D9FF25C0DAFF05
:10039000DECFF6FFDDCFF7FF0800F5502A0AD8A41C
:1003A000D4EF01F0D6EF01F0F3EF01F024C0D9FF54
:1003B00025C0DAFFDE2A000EDD2226C0D9FF27C0C5
:1003C000DAFFDFCF28F0020EDE26DFCF29F0000EA5
:1003D000DD2228C0D9FF29C0DAFFDECF4EF0DDCF05
:1003E0004FF036EF02F024C0D9FF25C0DAFFDECF90
:1003F0000AF0DDCF0BF0C5EC02F00AC04EF00BC0E6
:100400004FF00AEF02F024C0D9FF25C0DAFFDE2A40
:10041000000EDD22D00E286EFF0E296E24C0D9FFFB
:1004200025C0DAFFDECFF6FFDDCFF7FF0800F5507D
:100430002A6E2B6A28502A2629502B222B500AE19B
:100440000A0E2A5CD8A027EF02F02AEF02F0010E74
:100450002BEF02F0000E2E6E2F6A2E502F10D8A414
:1004600034EF02F036EF02F003EF02F024C0D9FFC0
:1004700025C0DAFFDECFF6FFDDCFF7FF0800F5502D
:10048000730AD8A446EF02F048EF02F073EF02F0CF
:1004900024C0D9FF25C0DAFFDE2A000EDD2226C0E7
:1004A000D9FF27C0DAFFDFCF28F0020EDE26DFCF2C
:1004B00029F0000EDD2228C0D9FF29C0DAFFDECFE7
:1004C0002CF0DDCF2DF022C00CF023C00DF02CC09D
:1004D0000EF02DC00FF08DEC03F00CC022F00DC01B
:1004E00023F0C4EF02F024C0D9FF25C0DAFFDECF2D
:1004F000F6FFDDCFF7FF0800F550250AD8A483EFFB
:1005000002F085EF02F09CEF02F024C0D9FF25C075
:10051000DAFFDE2A000EDD22000E046E250E036EC9
:1005200022C005F023C006F04EEC04F0000E236E4E
:10053000010E226EC4EF02F024C0D9FF25C0DAFFFD
:10054000DE2A000EDD22000E236E000E226EC4EFA6
:1005500002F024C0D9FF25C0DAFFDECFF6FFDDCFE1
:10056000F7FF0800F550036E046A22C005F023C0AF
:1005700006F04EEC04F024C0D9FF25C0DAFFDE2AD5
:10058000000EDD2296EF02F01200000E186E000E33
:10059000176E000E116E000E106ED1EF02F00A4AB7
:1005A0000B2A010E166E0AC0F6FF0BC0F7FF0800FB
:1005B000F550200AD8B4DFEF02F0E1EF02F0FEEFD1
:1005C00002F0F70E0C6EFF0E0D6E0AC0F6FF0BC0A8
:1005D000F7FF0800F5500E6E0F6A0C500E260D50F6
:1005E0000F220F5009E1050E0E5CD8A0FAEF02F0C1
:1005F000FCEF02F0FEEF02F0000E166E16C012F0D5
:10060000136A12501310D8A408EF03F00AEF03F096
:10061000CFEF02F014EF03F0000E116E010E106E1A
:100620000A4A0B2A49EF03F00AC0F6FF0BC0F7FF96
:100630000800F5500C6E0D6A0D50000AD8B423EF77
:1006400003F049EF03F00C502B0AD8B410EF03F07D
:10065000060AD8B40CEF03F049EF03F017C003F01B
:1006600018C004F0000E066E0A0E056EADEC06F022
:100670000AC0F6FF0BC0F7FF0800F550035E000E3E
:10068000045A300E0324176E000E0420186E10EF6B
:1006900003F0D00E0C6EFF0E0D6E0AC0F6FF0BC0FD
:1006A000F7FF0800F5500E6E0F6A0C500E260D5025
:1006B0000F220F500AE10A0E0E5CD8A062EF03F081
:1006C00065EF03F0010E66EF03F0000E146E156A7D
:1006D00014501510D8A46FEF03F071EF03F02EEF54
:1006E00003F010501110D8A478EF03F07AEF03F064
:1006F00088EF03F017C00CF018C00DF00C1E0D1E93
:100700000C4A0D2A0CC00AF00DC00BF08CEF03F060
:1007100017C00AF018C00BF0120020EEA6F010EE81
:1007200011F0060EDBCFE3FFE806FCE20EC01CF082
:100730000FC01DF01C501D10D8A4A1EF03F0A3EFB3
:1007400003F0A7EF03F0110E1C6E000E1D6E1CC00F
:1007500003F01DC004F060EC06F003C020F004C0FC
:1007600021F04EC01EF04FC01FF01FBEBAEF03F0C5
:10077000BCEF03F0D1EF03F020501E5C1F50800A45
:10078000106E2150800A1058D8A0C9EF03F0CBEFAB
:1007900003F0CDEF03F0D1EF03F01EC020F01FC037
:1007A00021F020C01EF021C01FF04CC01AF04DC037
:1007B0001BF050B0DEEF03F0E0EF03F0FDEF03F0CD
:1007C000EEEF03F0000E046E200E036E0CC005F079
:1007D0000DC006F04EEC04F0204A212A1A50205C8D
:1007E0002150800A106E1B50800A1058D8A0FBEFD1
:1007F00003F0FDEF03F0E2EF03F0000E196E000EC0
:10080000186E16EF04F01CC0D9FF1DC0DAFFDF50D0
:10081000106E1050036E046A0CC005F00DC006F097
:100820004EEC04F01C4A1D2A184A192A1E50185C66
:100830001950800A106E1F50800A1058D8A023EF5C
:1008400004F025EF04F003EF04F050A02AEF04F0C9
:100850002CEF04F049EF04F03AEF04F0000E046EC0
:10086000200E036E0CC005F00DC006F04EEC04F037
:10087000204A212A1A50205C2150800A106E1B50F9
:10088000800A1058D8A047EF04F049EF04F02EEF8B
:1008900004F020C00CF021C00DF01200055006102D
:1008A000D8B455EF04F057EF04F060EF04F00550B2
:1008B0000610D8A45EEF04F060EF04F065EF04F0DA
:1008C0000350D7EC06F0B2EF04F020EE04F0055030
:1008D000D9260650DA22DE50DE10D8B472EF04F0CA
:1008E00074EF04F08FEF04F020EE04F00550D926E9
:1008F0000650DA2210EE02F00550E1260650E22200
:10090000DE50E65CE650800A0B6EDE50800A0B5823
:10091000D8B08DEF04F08FEF04F0B2EF04F020EECA
:1009200002F00550D9260650DA22DECF07F0DDCFDF
:1009300008F005C0D9FF06C0DAFFDECF09F0DDCF31
:100940000AF007500924D96E08500A20DA6E03C055
:10095000DFFF20EE02F00550D9260650DA22DE2A0B
:10096000000EDD221200929C9490949294949590A3
:100970009592899C8B908B928B948C908C92270E65
:10098000076EF50EE82EFED7072EFCD700F0030EFB
:1009900008EC05F00D0E076EFC0EE82EFED7072EB4
:1009A000FCD7030E08EC05F0850EE82EFED700F00C
:1009B000030E08EC05F0210EE82EFED700F0020E23
:1009C00008EC05F0210EE82EFED700F0000E056EB3
:1009D000280E95EC06F0000E056E080E95EC06F05C
:1009E000000E056E010E95EC06F0060E076E300E39
:1009F000E82EFED7072EFCD700D0000E056E060E9F
:100A000095EC06F0000E056E0F0E95EC06F0120048
:100A1000046E04C003F0010E031603468B50031846
:100A2000FD0B03188B6E04C003F0D8900332010E47
:100A30000316034603468B500318FB0B03188B6EFB
:100A400004C003F0D8900332D8900332010E03168D
:100A50008C500318FE0B03188C6E04C003F0D89062
:100A60000332D8900332D8900332010E03160346A6
:100A70008C500318FD0B03188C6ECCEC06F0030EA3
:100A8000E82EFED700F01200720ED36ED3A44BEF07
:100A900005F04DEF05F046EF05F0C0EC06F0B3ECC5
:100AA00004F0010E7BEC06F0F28EF28CD08E9D8A63
:100AB0009C0E386E000E396E010E3A6E030E3B6EC0
:100AC00081C03CF03D6AFFEC05F09C0E076E000E05
:100AD000086E26EC06F0020E496E040E486EBA0E41
:100AE000E82EFED7482EFCD7492EFAD700D058EF73
:100AF00005F01FEF00F032C036F033C037F0000EC3
:100B00004B6E000E4A6E97EF05F030C022F031C0F8
:100B100023F0360E246E000E256E34C026F035C04C
:100B200027F084EC01F022504A2623504B2236C095
:100B3000F6FF37C0F7FF0800F5500009D8A4A3EF6F
:100B400005F0A5EF05F085EF05F04AC030F04BC089
:100B500031F01200A60EF66E0D0EF76E000EF86E56
:100B600000EEA6F010EE07F00900F5CFEEFFE5501D
:100B7000E150FAE1B00EF66E0D0EF76E000EF86E53
:100B80000900F5CF53F000EE60F03C0EEE6AE80687
:100B9000FDE100EE4AF0090EEE6AE806FDE1549030
:100BA0005492000EF86E000144EF05F0010E096E3C
:100BB000200E03180410D8B4E0EF05F0E2EF05F0C2
:100BC000FBEF05F0F70E056EFF0E066E03C007F093
:100BD00004C008F00550072606500822085009E115
:100BE000050E075CD8A0F7EF05F0F9EF05F0FBEF75
:100BF00005F0000E096E09C003F0046A12003C0EF5
:100C0000406E000E416E38C042F039C043F0000E15
:100C1000456E000E446E000E476E000E466E420E8C
:100C2000306E000E316E3AC032F03BC033F0400EF1
:100C3000346E000E356E7BEC05F044503824D96ECE
:100C400045503920DA6E000EDF6E120037EF06F0E5
:100C5000010E056E07C0D9FF08C0DAFFDF5095EC22
:100C600006F0074A082A210EE82EFED700F007C03A
:100C7000D9FF08C0DAFFDF50D8A441EF06F043EFF8
:100C800006F028EF06F01200D00E056EFF0E066E7D
:100C900003C007F004C008F00550072606500822DC
:100CA00008500AE10A0E075CD8A059EF06F05CEF85
:100CB00006F0010E5DEF06F0000E036E046A1200EE
:100CC00003C005F004C006F068EF06F0034A042AEA
:100CD00003C0D9FF04C0DAFFDF50D8A472EF06F0DA
:100CE00074EF06F066EF06F00550035C036E0650E5
:100CF0000458046E1200076E0704D8A482EF06F0B1
:100D000084EF06F08BEF06F0000E056E800E95EC7A
:100D100006F090EF06F0000E056EC00E95EC06F0A2
:100D2000210EE82EFED700F01200066E05B002D0AC
:100D3000899C01D0898C06380F0B0F0B08EC05F04D
:100D4000060EE82EFED700D006500F0B08EC05F07B
:100D5000210EE82EFED700F0120003500502F3CF5B
:100D600007F0F4CF08F003500602F35008260450B1
:100D70000502F350082607C003F008C004F0120073
:100D8000948C948ECF0EAF6E000EB06EAA86AC849B
:100D9000AB88AB8EAC8A12008B80030EE82EFED798
:0D0DA00000F08B901200286E756C6C29001D
:030DAE0012004BE5
:020000040020DA
:08000000FFFFFFFFFFFFFFFF00
:020000040030CA
:0E000000FFC80F3F3C9D85FF0FC00FE00F4073
:00000001FF
