:020000040000FA
:04000000A4EF0DF06C
:101B25004B000E1A6E000E236E1A0E0F6E000E106D
:101B35006E33EC0FF0230E0F6E000E106E33EC0FAC
:101B4500F01200250EF66E1B0EF76E000EF86E09EC
:101B550000F5CF2CF000EE1AF0120EEE6AE806FD45
:101B6500E1000172EF0EF001500302F3CF05F0F42E
:101B7500CF06F001500402F350062602500302F38B
:101B850050062605C001F006C002F01200010E1B2A
:101B95006E010E246E640E236E640E1A6E1A0E0FFD
:101BA5006E000E106E33EC0FF0230E0F6E000E104C
:101BB5006E33EC0FF01200010E246E000E1B6E2C1E
:101BC500C023F02CC01AF01A0E0F6E000E106E33E3
:101BD500EC0FF0230E0F6E000E106E33EC0FF012AB
:101BE50000010E1B6E000E246E2CC01AF02CC023B3
:101BF500F01A0E0F6E000E106E33EC0FF0230E0F61
:101C05006E000E106E33EC0FF0120007C001F008E5
:101C1500C002F0000E046E140E036EB6EC0DF0015A
:101C2500C00AF002C00BF0000E0D6E000E0C6E2502
:101C3500EF0EF0820E096EDE0EE82EFED7092EFCA1
:101C4500D70C4A0D2A0A500C5C0B500D58D8A02E03
:101C5500EF0EF030EF0EF01CEF0EF01200939093A4
:101C650092939493968A908A928A948A96000E7F8C
:101C75006E800E7E6E6F0E6F6E000E6E6EC70E7BE3
:101C85006E000E7A6E000E796E000E786E000E777D
:101C95006E000E766E000E236E010E246E790E25F3
:101CA5006E0F0E266E780E276E0F0E286E000E290B
:101CB5006E000E2B6EC70E2A6E000E1A6E010E1BDD
:101CC5006E770E1C6E0F0E1D6E760E1E6E0F0E1F9E
:101CD5006E020E206E000E226EC70E216E1200726D
:101CE5000ED36ED3A479EF0EF07BEF0EF074EF0EEA
:101CF500F031EC0EF0230E166E000E176E1A0E184C
:101D05006E000E196EC9EC0DF0000E086E010E077F
:101D15006E08EC0EF0230E166E000E176E1A0E18D6
:101D25006E000E196E93EC0DF0000E086E010E0795
:101D35006E08EC0EF0230E166E000E176E1A0E18B6
:101D45006E000E196EDEEC0DF0000E086E010E072A
:101D55006E08EC0EF0230E166E000E176E1A0E1896
:101D65006E000E196EF3EC0DF0000E086E010E07F5
:101D75006E08EC0EF0230E166E000E176E1A0E1876
:101D85006E000E196E93EC0DF0000E086E010E0735
:101D95006E08EC0EF07DEF0EF000EF00F0000E0C7B
:101DA5006E0ABEDAEF0EF0D8EF0EF0E0EF0EF00996
:101DB5006C0A1ED8B00A2A010E0C6E08BEE7EF0E9B
:101DC500F0E5EF0EF0EDEF0EF0076C081ED8B00849
:101DD5002A010E0C1A000E0E6E000E0D6E09500A29
:101DE50010D8B4F8EF0EF0FAEF0EF022EF0FF00175
:101DF5000E0B6E02EF0FF0D89009360A360B2A0A41
:101E0500AE07EF0FF009EF0FF0FEEF0EF0D8900DD3
:101E1500360E360950075C0A500858D8A015EF0F42
:101E2500F017EF0FF01CEF0FF00950075E0A50088E
:101E35005A0D80D8900A3209320B2E09EF0FF00C9B
:101E450050D8B428EF0FF02AEF0FF02EEF0FF00D5A
:101E55006C0E1ED8B00E2A0DC007F00EC008F01289
:101E65000020EE01F00F50D9261050DA22DF50D8AD
:101E7500B43FEF0FF041EF0FF072EF0FF00FC0D945
:101E8500FF10C0DAFFDF50116E1150016E026A209B
:101E9500EE07F00F50D9261050DA22DECF03F0DD21
:101EA500CF04F0B6EC0DF001C007F002C008F00059
:101EB5000E0A6E640E096ED1EC0EF020EE07F00FDF
:101EC50050D9261050DA22DECF12F0DDCF13F007FD
:101ED50050125C146E08501358156E95EF0FF00FE5
:101EE500C0D9FF10C0DAFFDF50116E1150016E022C
:101EF5006A20EE07F00F50D9261050DA22DECF0304
:101F0500F0DDCF04F0B6EC0DF001C007F002C0081B
:101F1500F0000E0A6E640E096ED1EC0EF007C014C7
:101F2500F008C015F014C011F015C012F0D89011CA
:101F3500361236D8901136123611C014F012C0156B
:101F4500F020EE02F00F50D9261050DA22DECF1124
:101F5500F0DDCF12F011C0D9FF12C0DAFF14C0DFD7
:101F6500FF20EE04F00F50D9261050DA22DECF11F3
:101F7500F0DDCF12F011C0D9FF12C0DAFF15503FC6
:101F85000BDF6E20EE01F00F50D9261050DA22DF5C
:101F950050D8B4D0EF0FF0D2EF0FF0E9EF0FF020EB
:101FA500EE06F00F50D9261050DA22DF50116E01DF
:101FB5000E126E112AE1EF0FF0D8901236112EDFB6
:101FC500EF0FF012508A108A6EFFEF0FF020EE0629
:101FD500F00F50D9261050DA22DF50116E010E1283
:101FE5006E112AF8EF0FF0D8901236112EF6EF0F7A
:0B1FF500F01250FF0A8A148A6E1200DE
:020000040020DA
:08000000FFFFFFFFFFFFFFFF00
:020000040030CA
:0E000000FFC80F3F3C9D85FF0FC00FE00F4073
:00000001FF
