:020000040000FA
:0400000069EF00F0B4
:100018003D80D8CF08F0E8CF09F0E0CF0AF0F2A28F
:1000280018EF00F01AEF00F061EF00F0000ECF6E4D
:10003800000ECE6E000E026E020E016E1CEC03F076
:10004800F2929EA42AEF00F02CEF00F043EF00F0AC
:10005800BF50076E066ABE500624266E000E0720A3
:10006800276E9E94BFCF01F0026A1CEC03F0010ECC
:1000780056EC03F0010E036EBE5088EC03F0A1A00D
:1000880048EF00F04AEF00F061EF00F0BC50076E57
:10009800066ABB500624286E000E0720296EA19020
:1000A800BCCF01F0026A1CEC03F0020E56EC03F020
:1000B800010E036EBB5088EC03F00AC0E0FF09C0D4
:1000C800E8FF08C0D8FF3D901000DFEF03F020EEF6
:1000D80001F01950D9261A50DA22DF50D8B477EF38
:1000E80000F079EF00F0AAEF00F019C0D9FF1AC0AC
:1000F800DAFFDF501B6E1B500B6E0C6A20EE07F008
:100108001950D9261A50DA22DECF0DF0DDCF0EF0C5
:10011800F3EC03F00BC011F00CC012F0000E146EDB
:10012800640E136EA8EC01F020EE07F01950D926E2
:100138001A50DA22DECF1CF0DDCF1DF011501C5C06
:100148001E6E12501D581F6ECDEF00F019C0D9FF5A
:100158001AC0DAFFDF501B6E1B500B6E0C6A20EEC4
:1001680007F01950D9261A50DA22DECF0DF0DDCF6C
:100178000EF0F3EC03F00BC011F00CC012F0000EFF
:10018800146E640E136EA8EC01F011C01EF012C0BC
:100198001FF01EC01BF01FC01CF0D8901B361C3669
:1001A800D8901B361C361BC01EF01CC01FF020EE5A
:1001B80002F01950D9261A50DA22DECF1BF0DDCF13
:1001C8001CF01BC0D9FF1CC0DAFF1EC0DFFF20EEE9
:1001D80004F01950D9261A50DA22DECF1BF0DDCFF1
:1001E8001CF01BC0D9FF1CC0DAFF1F503F0BDF6E8D
:1001F80020EE01F01950D9261A50DA22DF50D8B46F
:1002080008EF01F00AEF01F021EF01F020EE06F00F
:100218001950D9261A50DA22DF501B6E010E1C6EB7
:100228001B2A19EF01F0D8901C361B2E17EF01F08E
:100238001C508A108A6E37EF01F020EE06F0195034
:10024800D9261A50DA22DF501B6E010E1C6E1B2AAB
:1002580030EF01F0D8901C361B2E2EEF01F01C5009
:10026800FF0A8A148A6E1200720ED36ED3A43FEF6F
:1002780001F041EF01F03AEF01F00AEC02F0010E53
:100288003CEC03F05FEC02F0F28EF28CD08E9D8A8B
:10029800948294849486BD96BD84BD92BD80BA969E
:1002A800BA84BA92BA8006EC04F0F288F19CCD8048
:1002B800CD8ECD92CD96CD88CD8ACD8C2850265C1A
:1002C800246E29502758256E255007E1640E245CBA
:1002D800D8B071EF01F073EF01F07DEF01F0330E4C
:1002E800206E000E216E2A0E226E000E236EB5ECD3
:1002F80003F02850265C246E29502758256E255077
:1003080009E1650E245CD8A08CEF01F08EEF01F0B6
:100318009AEF01F0330E206E000E216E2A0E226E27
:10032800000E236EA0EC03F062EF01F0330E206E96
:10033800000E216E2A0E226E000E236ECAEC03F008
:1003480062EF01F069EF00F0000E166E14BEB1EF17
:1003580001F0AFEF01F0B7EF01F0136C141ED8B045
:10036800142A010E166E12BEBEEF01F0BCEF01F0AA
:10037800C4EF01F0116C121ED8B0122A010E161A21
:10038800000E186E000E176E13501410D8B4CFEF6D
:1003980001F0D1EF01F0F9EF01F0010E156ED9EF80
:1003A80001F0D89013361436152A14AEDEEF01F09A
:1003B800E0EF01F0D5EF01F0D8901736183613505A
:1003C800115C14501258D8A0ECEF01F0EEEF01F0D8
:1003D800F3EF01F01350115E1450125A1780D890A1
:1003E80014321332152EE0EF01F01650D8B4FFEF97
:1003F80001F001EF02F005EF02F0176C181ED8B0FB
:10040800182A17C011F018C012F01200929C94908C
:100418009596959495909592899C8B908C928C94B6
:100428008C908C92270E0F6EF50EE82EFED70F2EAD
:10043800FCD700F0030EA0EC02F00D0E0F6EFC0EC0
:10044800E82EFED70F2EFCD7030EA0EC02F0850E87
:10045800E82EFED700F0030EA0EC02F0210EE82EE5
:10046800FED700F0020EA0EC02F0210EE82EFED717
:1004780000F0000E0D6E280E70EC03F0000E0D6EED
:10048800080E70EC03F0000E0D6E010E70EC03F018
:10049800060E0F6E300EE82EFED70F2EFCD700D0BA
:1004A800000E0D6E060E70EC03F0000E0D6E0F0EB2
:1004B80070EC03F0120093909392939493968A9021
:1004C8008A928A948A96000E7F6E800E7E6E6F0ED8
:1004D8006F6E000E6E6EC70E7B6E000E7A6E000E8B
:1004E800796E000E786E000E776E000E766E000E36
:1004F800336E010E346E790E356E0F0E366E780E31
:10050800376E0F0E386E000E396E000E3B6EC70E3A
:100518003A6E000E2A6E010E2B6E770E2C6E0F0EA1
:100528002D6E760E2E6E0F0E2F6E020E306E000E92
:10053800326EC70E316E12000C6E0CC00BF0010E3D
:100548000B160B460B460B468C500B18F70B0B186B
:100558008C6E0CC00BF0D8900B32010E0B160B46AC
:100568000B468C500B18FB0B0B188C6E0CC00BF049
:10057800D8900B32D8900B32010E0B168C500B18FA
:10058800FE0B0B188C6E0CC00BF0D8900B32D89069
:100598000B32D8900B32010E0B160B468C500B18F1
:1005A800FD0B0B188C6E17EC04F0030EE82EFED72B
:1005B80000F01200026E02C001F0010E01160146A1
:1005C800014601468C500118F70B01188C6E02C0C9
:1005D80001F0D8900132010E0116014601468C50F7
:1005E8000118FB0B01188C6E02C001F0D890013283
:1005F800D8900132010E01168C500118FE0B01181B
:100608008C6E02C001F0D8900132D8900132D89097
:100618000132010E011601468C500118FD0B01181C
:100628008C6E1EEC04F0030EE82EFED700F01200CC
:1006380001C003F03C0E0316D8900336D89003345B
:100648008B6E01C003F002C004F00434043203329C
:10065800043404320332300E031601C005F0030ED1
:100668000516D8900536D890053403108C6E120004
:100678000F6E0F04D8A443EF03F045EF03F04CEFDF
:1006880003F0000E0D6E800E70EC03F051EF03F0D6
:10069800000E0D6EC00E70EC03F0210EE82EFED792
:1006A80000F01200056E0504D8A45DEF03F05FEFBB
:1006B80003F066EF03F0000E036E800E88EC03F083
:1006C8006BEF03F0000E036EC00E88EC03F0210EF2
:1006D800E82EFED700F012000E6E0DB002D0899CF5
:1006E80001D0898C0E380F0B0F0BA0EC02F0060E10
:1006F800E82EFED700D00E500F0BA0EC02F0210E12
:10070800E82EFED700F01200046E03B002D0899CD8
:1007180001D0898C04380F0B0F0BDEEC02F0060EAB
:10072800E82EFED700D004500F0BDEEC02F0210EAD
:10073800E82EFED700F01200010E2B6E000E346E6C
:100748003CC02AF03CC033F02A0E196E000E1A6E17
:100758006BEC00F0330E196E000E1A6E6BEC00F0A5
:100768001200010E346E000E2B6E3CC033F03CC0FC
:100778002AF02A0E196E000E1A6E6BEC00F0330E7A
:10078800196E000E1A6E6BEC00F01200010E2B6E43
:10079800010E346E3CC033F03CC02AF02A0E196EAC
:1007A800000E1A6E6BEC00F0330E196E000E1A6E06
:1007B8006BEC00F012004A0EF66E080EF76E000E93
:1007C800F86E0900F5CF3CF000EE26F0160EEE6A42
:1007D800E806FDE13D903D92000138EF01F00B5035
:1007E8000D02F3CF0FF0F4CF10F00B500E02F350C0
:1007F80010260C500D02F35010260FC00BF010C03D
:100808000CF012008C948C968B988B9A8B9C8B9EF8
:100818008C988C9A959495969598959A9498949A7C
:10082800949C949E12008B80030EE82EFED700F055
:100838008B9012008B80030EE82EFED700F08B9071
:0308480012002873
:020000040020DA
:08000000FFFFFFFFFFFFFFFF00
:020000040030CA
:0E000000FFC80F3F3C9D85FF0FC00FE00F4073
:00000001FF
