:020000040000FA
:040000002AEF00F0F3
:100008003282D9CF24F0DACF25F0F3CF26F0F4CF1F
:1000180027F09EAA12EF00F014EF00F020EF00F096
:100028000150010D020EF324D96E000EF420DA6E91
:10003800AECFDFFF20EF00F027C0F4FF26C0F3FFAC
:1000480025C0DAFF24C0D9FF329211004BEF01F02E
:10005800929C94909492949495909592899C8B906C
:100068008B928B948C908C92270E2C6EF50EE82E2A
:10007800FED72C2EFCD700F0030E81EC00F00D0EFD
:100088002C6EFC0EE82EFED72C2EFCD7030E81EC2E
:1000980000F0850EE82EFED700F0030E81EC00F08C
:1000A800210EE82EFED700F0020E81EC00F0210EA2
:1000B800E82EFED700F0000E2A6E280E33EC01F071
:1000C800000E2A6E080E33EC01F0000E2A6E010EA7
:1000D80033EC01F0060E2C6E300EE82EFED72C2ED7
:1000E800FCD700D0000E2A6E060E33EC01F0000E8D
:1000F8002A6E0F0E33EC01F01200296E29C028F089
:10010800010E281628468B502818FD0B28188B6ED0
:1001180029C028F0D8902832010E281628462846EB
:100128008B502818FB0B28188B6E29C028F0D89004
:100138002832D8902832010E28168C502818FE0B29
:1001480028188C6E29C028F0D8902832D8902832E8
:10015800D8902832010E281628468C502818FD0BF6
:1001680028188C6E6BEC01F0030EE82EFED700F019
:100178001200720ED36EC1EF00F0D3A4C6EF00F0E8
:10018800C8EF00F0C1EF00F0CAEF00F05FEC01F03B
:100198002CEC00F0010E17EC01F0F28EF28CD08EF0
:1001A800000E306ED8EF00F0000E2A6E010E33EC10
:1001B80001F0020E2C6E000E2D6EF5EC00F0020E12
:1001C8002F6E040E2E6EBA0EE82EFED72E2EFCD7FA
:1001D8002F2EFAD700D0D8EF00F0D8EF00F02AEF92
:1001E80000F008EF01F0010E2A6E2CC0D9FF2DC0D7
:1001F800DAFFDF5033EC01F02C4A2D2A210EE82ECD
:10020800FED700F008EF01F02CC0D9FF2DC0DAFFAF
:10021800DF50D8A412EF01F014EF01F0F7EF00F06F
:1002280016EF01F012002C6E2C04D8A41EEF01F07A
:1002380020EF01F027EF01F0000E2A6E800E33EC5C
:1002480001F02EEF01F0000E2A6EC00E33EC01F023
:100258002EEF01F0210EE82EFED700F012002B6ED3
:100268002AB002D0899C01D0898C2B380F0B0F0B38
:1002780081EC00F0060EE82EFED700D02B500F0BB5
:1002880081EC00F0210EE82EFED700F01200E40EFB
:10029800F66E020EF76E000EF86E0900F5CF31F01B
:1002A80000EE01F0230EEE6AE806FDE1329032928C
:1002B8000001BDEF00F0948C948ECF0EAF6E000E4F
:1002C800B06EAA86AC84AB88AB8EAC8A12008B80E9
:0D02D800030EE82EFED700F08B9012004BB5
:020000040020DA
:08000000FFFFFFFFFFFFFFFF00
:020000040030CA
:0E000000FFC80F3F3C9D85FF0FC00FE00F4073
:00000001FF
